{
  "_format": "hh-sol-artifact-1",
  "contractName": "SimpleMessage",
  "sourceName": "contracts/SimpleMessage.sol",
  "abi": [
    {
      "inputs": [
        {
          "internalType": "string",
          "name": "initialMessage",
          "type": "string"
        }
      ],
      "stateMutability": "nonpayable",
      "type": "constructor"
    },
    {
      "anonymous": false,
      "inputs": [
        {
          "indexed": true,
          "internalType": "string",
          "name": "newMessage",
          "type": "string"
        },
        {
          "indexed": true,
          "internalType": "address",
          "name": "changedBy",
          "type": "address"
        }
      ],
      "name": "MessageChanged",
      "type": "event"
    },
    {
      "inputs": [],
      "name": "getMessage",
      "outputs": [
        {
          "internalType": "string",
          "name": "",
          "type": "string"
        }
      ],
      "stateMutability": "view",
      "type": "function"
    },
    {
      "inputs": [],
      "name": "message",
      "outputs": [
        {
          "internalType": "string",
          "name": "",
          "type": "string"
        }
      ],
      "stateMutability": "view",
      "type": "function"
    },
    {
      "inputs": [],
      "name": "owner",
      "outputs": [
        {
          "internalType": "address",
          "name": "",
          "type": "address"
        }
      ],
      "stateMutability": "view",
      "type": "function"
    },
    {
      "inputs": [
        {
          "internalType": "string",
          "name": "_message",
          "type": "string"
        }
      ],
      "name": "setMessage",
      "outputs": [],
      "stateMutability": "nonpayable",
      "type": "function"
    },
    {
      "inputs": [
        {
          "internalType": "address",
          "name": "newOwner",
          "type": "address"
        }
      ],
      "name": "transferOwnership",
      "outputs": [],
      "stateMutability": "nonpayable",
      "type": "function"
    }
  ],
  "bytecode": "0x608060405234801561001057600080fd5b5060405161117838038061117883398181016040528101906100329190610252565b33600160006101000a81548173ffffffffffffffffffffffffffffffffffffffff021916908373ffffffffffffffffffffffffffffffffffffffff16021790555060008151036100c6576040518060400160405280600c81526020017f4865792074686572652041440000000000000000000000000000000000000000815250600090816100c091906104bc565b506100d7565b80600090816100d591906104bc565b505b5061058e565b6000604051905090565b600080fd5b600080fd5b600080fd5b600080fd5b6000601f19601f8301169050919050565b7f4e487b7100000000000000000000000000000000000000000000000000000000600052604160045260246000fd5b610144826100fb565b810181811067ffffffffffffffff821117156101635761016261010c565b5b80604052505050565b60006101766100dd565b9050610182828261013b565b919050565b600067ffffffffffffffff8211156101a2576101a161010c565b5b6101ab826100fb565b9050602081019050919050565b60005b838110156101d65780820151818401526020810190506101bb565b60008484015250505050565b60006101f56101f084610187565b61016c565b905082815260208101848484011115610211576102106100f6565b5b61021c8482856101b8565b509392505050565b600082601f830112610239576102386100f1565b5b81516102498482602086016101e2565b91505092915050565b600060208284031215610268576102676100e7565b5b600082015167ffffffffffffffff811115610286576102856100ec565b5b61029284828501610224565b91505092915050565b600081519050919050565b7f4e487b7100000000000000000000000000000000000000000000000000000000600052602260045260246000fd5b600060028204905060018216806102ed57607f821691505b602082108103610300576102ff6102a6565b5b50919050565b60008190508160005260206000209050919050565b60006020601f8301049050919050565b600082821b905092915050565b6000600883026103687fffffffffffffffffffffffffffffffffffffffffffffffffffffffffffffffff8261032b565b610372868361032b565b95508019841693508086168417925050509392505050565b6000819050919050565b6000819050919050565b60006103b96103b46103af8461038a565b610394565b61038a565b9050919050565b6000819050919050565b6103d38361039e565b6103e76103df826103c0565b848454610338565b825550505050565b600090565b6103fc6103ef565b6104078184846103ca565b505050565b5b8181101561042b576104206000826103f4565b60018101905061040d565b5050565b601f8211156104705761044181610306565b61044a8461031b565b81016020851015610459578190505b61046d6104658561031b565b83018261040c565b50505b505050565b600082821c905092915050565b600061049360001984600802610475565b1980831691505092915050565b60006104ac8383610482565b9150826002028217905092915050565b6104c58261029b565b67ffffffffffffffff8111156104de576104dd61010c565b5b6104e882546102d5565b6104f382828561042f565b600060209050601f8311600181146105265760008415610514578287015190505b61051e85826104a0565b865550610586565b601f19841661053486610306565b60005b8281101561055c57848901518255600182019150602085019450602081019050610537565b868310156105795784890151610575601f891682610482565b8355505b6001600288020188555050505b505050505050565b610bdb8061059d6000396000f3fe608060405234801561001057600080fd5b50600436106100575760003560e01c8063368b87721461005c5780638da5cb5b14610078578063ce6d41de14610096578063e21f37ce146100b4578063f2fde38b146100d2575b600080fd5b610076600480360381019061007191906105cd565b6100ee565b005b6100806101ea565b60405161008d9190610657565b60405180910390f35b61009e610210565b6040516100ab91906106f1565b60405180910390f35b6100bc6102a2565b6040516100c991906106f1565b60405180910390f35b6100ec60048036038101906100e7919061073f565b610330565b005b600160009054906101000a900473ffffffffffffffffffffffffffffffffffffffff1673ffffffffffffffffffffffffffffffffffffffff163373ffffffffffffffffffffffffffffffffffffffff161461017e576040517f08c379a0000000000000000000000000000000000000000000000000000000008152600401610175906107de565b60405180910390fd5b806000908161018d9190610a14565b503373ffffffffffffffffffffffffffffffffffffffff16816040516101b39190610b22565b60405180910390207ffe805c34be9e63a416b9aba99c6c62782dafb9620895945675bbbe5131aeb1a160405160405180910390a350565b600160009054906101000a900473ffffffffffffffffffffffffffffffffffffffff1681565b60606000805461021f9061082d565b80601f016020809104026020016040519081016040528092919081815260200182805461024b9061082d565b80156102985780601f1061026d57610100808354040283529160200191610298565b820191906000526020600020905b81548152906001019060200180831161027b57829003601f168201915b5050505050905090565b600080546102af9061082d565b80601f01602080910402602001604051908101604052809291908181526020018280546102db9061082d565b80156103285780601f106102fd57610100808354040283529160200191610328565b820191906000526020600020905b81548152906001019060200180831161030b57829003601f168201915b505050505081565b600160009054906101000a900473ffffffffffffffffffffffffffffffffffffffff1673ffffffffffffffffffffffffffffffffffffffff163373ffffffffffffffffffffffffffffffffffffffff16146103c0576040517f08c379a00000000000000000000000000000000000000000000000000000000081526004016103b7906107de565b60405180910390fd5b600073ffffffffffffffffffffffffffffffffffffffff168173ffffffffffffffffffffffffffffffffffffffff160361042f576040517f08c379a000000000000000000000000000000000000000000000000000000000815260040161042690610b85565b60405180910390fd5b80600160006101000a81548173ffffffffffffffffffffffffffffffffffffffff021916908373ffffffffffffffffffffffffffffffffffffffff16021790555050565b6000604051905090565b600080fd5b600080fd5b600080fd5b600080fd5b6000601f19601f8301169050919050565b7f4e487b7100000000000000000000000000000000000000000000000000000000600052604160045260246000fd5b6104da82610491565b810181811067ffffffffffffffff821117156104f9576104f86104a2565b5b80604052505050565b600061050c610473565b905061051882826104d1565b919050565b600067ffffffffffffffff821115610538576105376104a2565b5b61054182610491565b9050602081019050919050565b82818337600083830152505050565b600061057061056b8461051d565b610502565b90508281526020810184848401111561058c5761058b61048c565b5b61059784828561054e565b509392505050565b600082601f8301126105b4576105b3610487565b5b81356105c484826020860161055d565b91505092915050565b6000602082840312156105e3576105e261047d565b5b600082013567ffffffffffffffff81111561060157610600610482565b5b61060d8482850161059f565b91505092915050565b600073ffffffffffffffffffffffffffffffffffffffff82169050919050565b600061064182610616565b9050919050565b61065181610636565b82525050565b600060208201905061066c6000830184610648565b92915050565b600081519050919050565b600082825260208201905092915050565b60005b838110156106ac578082015181840152602081019050610691565b60008484015250505050565b60006106c382610672565b6106cd818561067d565b93506106dd81856020860161068e565b6106e681610491565b840191505092915050565b6000602082019050818103600083015261070b81846106b8565b905092915050565b61071c81610636565b811461072757600080fd5b50565b60008135905061073981610713565b92915050565b6000602082840312156107555761075461047d565b5b60006107638482850161072a565b91505092915050565b7f4f6e6c79206f776e65722063616e2063616c6c20746869732066756e6374696f60008201527f6e00000000000000000000000000000000000000000000000000000000000000602082015250565b60006107c860218361067d565b91506107d38261076c565b604082019050919050565b600060208201905081810360008301526107f7816107bb565b9050919050565b7f4e487b7100000000000000000000000000000000000000000000000000000000600052602260045260246000fd5b6000600282049050600182168061084557607f821691505b602082108103610858576108576107fe565b5b50919050565b60008190508160005260206000209050919050565b60006020601f8301049050919050565b600082821b905092915050565b6000600883026108c07fffffffffffffffffffffffffffffffffffffffffffffffffffffffffffffffff82610883565b6108ca8683610883565b95508019841693508086168417925050509392505050565b6000819050919050565b6000819050919050565b600061091161090c610907846108e2565b6108ec565b6108e2565b9050919050565b6000819050919050565b61092b836108f6565b61093f61093782610918565b848454610890565b825550505050565b600090565b610954610947565b61095f818484610922565b505050565b5b818110156109835761097860008261094c565b600181019050610965565b5050565b601f8211156109c8576109998161085e565b6109a284610873565b810160208510156109b1578190505b6109c56109bd85610873565b830182610964565b50505b505050565b600082821c905092915050565b60006109eb600019846008026109cd565b1980831691505092915050565b6000610a0483836109da565b9150826002028217905092915050565b610a1d82610672565b67ffffffffffffffff811115610a3657610a356104a2565b5b610a40825461082d565b610a4b828285610987565b600060209050601f831160018114610a7e5760008415610a6c578287015190505b610a7685826109f8565b865550610ade565b601f198416610a8c8661085e565b60005b82811015610ab457848901518255600182019150602085019450602081019050610a8f565b86831015610ad15784890151610acd601f8916826109da565b8355505b6001600288020188555050505b505050505050565b600081905092915050565b6000610afc82610672565b610b068185610ae6565b9350610b1681856020860161068e565b80840191505092915050565b6000610b2e8284610af1565b915081905092915050565b7f4e6577206f776e65722063616e6e6f74206265207a65726f2061646472657373600082015250565b6000610b6f60208361067d565b9150610b7a82610b39565b602082019050919050565b60006020820190508181036000830152610b9e81610b62565b905091905056fea2646970667358221220ec26a75ba112edc0110cbf1ac0496dde780f51c3dddfde8051d5656d55c2d24364736f6c634300081c0033",
  "linkReferences": {},
  "deployedLinkReferences": {}
}