{
  "contracts/SimpleMessage.sol": {
    "SimpleMessage": {
      "abi": [
        {
          "inputs": [
            {
              "internalType": "string",
              "name": "initialMessage",
              "type": "string"
            }
          ],
          "stateMutability": "nonpayable",
          "type": "constructor"
        },
        {
          "anonymous": false,
          "inputs": [
            {
              "indexed": true,
              "internalType": "string",
              "name": "newMessage",
              "type": "string"
            },
            {
              "indexed": true,
              "internalType": "address",
              "name": "changedBy",
              "type": "address"
            }
          ],
          "name": "MessageChanged",
          "type": "event"
        },
        {
          "inputs": [],
          "name": "getMessage",
          "outputs": [
            {
              "internalType": "string",
              "name": "",
              "type": "string"
            }
          ],
          "stateMutability": "view",
          "type": "function"
        },
        {
          "inputs": [],
          "name": "message",
          "outputs": [
            {
              "internalType": "string",
              "name": "",
              "type": "string"
            }
          ],
          "stateMutability": "view",
          "type": "function"
        },
        {
          "inputs": [],
          "name": "owner",
          "outputs": [
            {
              "internalType": "address",
              "name": "",
              "type": "address"
            }
          ],
          "stateMutability": "view",
          "type": "function"
        },
        {
          "inputs": [
            {
              "internalType": "string",
              "name": "_message",
              "type": "string"
            }
          ],
          "name": "setMessage",
          "outputs": [],
          "stateMutability": "nonpayable",
          "type": "function"
        },
        {
          "inputs": [
            {
              "internalType": "address",
              "name": "newOwner",
              "type": "address"
            }
          ],
          "name": "transferOwnership",
          "outputs": [],
          "stateMutability": "nonpayable",
          "type": "function"
        }
      ],
      "evm": {
        "bytecode": {
          "linkReferences": {},
          "object": "608060405234801561001057600080fd5b5060405161113738038061113783398181016040528101906100329190610211565b6000815103610085576040518060400160405280600c81526020017f48657920746865726520414400000000000000000000000000000000000000008152506000908161007f919061047b565b50610096565b8060009081610094919061047b565b505b5061054d565b6000604051905090565b600080fd5b600080fd5b600080fd5b600080fd5b6000601f19601f8301169050919050565b7f4e487b7100000000000000000000000000000000000000000000000000000000600052604160045260246000fd5b610103826100ba565b810181811067ffffffffffffffff82111715610122576101216100cb565b5b80604052505050565b600061013561009c565b905061014182826100fa565b919050565b600067ffffffffffffffff821115610161576101606100cb565b5b61016a826100ba565b9050602081019050919050565b60005b8381101561019557808201518184015260208101905061017a565b60008484015250505050565b60006101b46101af84610146565b61012b565b9050828152602081018484840111156101d0576101cf6100b5565b5b6101db848285610177565b509392505050565b600082601f8301126101f8576101f76100b0565b5b81516102088482602086016101a1565b91505092915050565b600060208284031215610227576102266100a6565b5b600082015167ffffffffffffffff811115610245576102446100ab565b5b610251848285016101e3565b91505092915050565b600081519050919050565b7f4e487b7100000000000000000000000000000000000000000000000000000000600052602260045260246000fd5b600060028204905060018216806102ac57607f821691505b6020821081036102bf576102be610265565b5b50919050565b60008190508160005260206000209050919050565b60006020601f8301049050919050565b600082821b905092915050565b6000600883026103277fffffffffffffffffffffffffffffffffffffffffffffffffffffffffffffffff826102ea565b61033186836102ea565b95508019841693508086168417925050509392505050565b6000819050919050565b6000819050919050565b600061037861037361036e84610349565b610353565b610349565b9050919050565b6000819050919050565b6103928361035d565b6103a661039e8261037f565b8484546102f7565b825550505050565b600090565b6103bb6103ae565b6103c6818484610389565b505050565b5b818110156103ea576103df6000826103b3565b6001810190506103cc565b5050565b601f82111561042f57610400816102c5565b610409846102da565b81016020851015610418578190505b61042c610424856102da565b8301826103cb565b50505b505050565b600082821c905092915050565b600061045260001984600802610434565b1980831691505092915050565b600061046b8383610441565b9150826002028217905092915050565b6104848261025a565b67ffffffffffffffff81111561049d5761049c6100cb565b5b6104a78254610294565b6104b28282856103ee565b600060209050601f8311600181146104e557600084156104d3578287015190505b6104dd858261045f565b865550610545565b601f1984166104f3866102c5565b60005b8281101561051b578489015182556001820191506020850194506020810190506104f6565b868310156105385784890151610534601f891682610441565b8355505b6001600288020188555050505b505050505050565b610bdb8061055c6000396000f3fe608060405234801561001057600080fd5b50600436106100575760003560e01c8063368b87721461005c5780638da5cb5b14610078578063ce6d41de14610096578063e21f37ce146100b4578063f2fde38b146100d2575b600080fd5b610076600480360381019061007191906105cd565b6100ee565b005b6100806101ea565b60405161008d9190610657565b60405180910390f35b61009e610210565b6040516100ab91906106f1565b60405180910390f35b6100bc6102a2565b6040516100c991906106f1565b60405180910390f35b6100ec60048036038101906100e7919061073f565b610330565b005b600160009054906101000a900473ffffffffffffffffffffffffffffffffffffffff1673ffffffffffffffffffffffffffffffffffffffff163373ffffffffffffffffffffffffffffffffffffffff161461017e576040517f08c379a0000000000000000000000000000000000000000000000000000000008152600401610175906107de565b60405180910390fd5b806000908161018d9190610a14565b503373ffffffffffffffffffffffffffffffffffffffff16816040516101b39190610b22565b60405180910390207ffe805c34be9e63a416b9aba99c6c62782dafb9620895945675bbbe5131aeb1a160405160405180910390a350565b600160009054906101000a900473ffffffffffffffffffffffffffffffffffffffff1681565b60606000805461021f9061082d565b80601f016020809104026020016040519081016040528092919081815260200182805461024b9061082d565b80156102985780601f1061026d57610100808354040283529160200191610298565b820191906000526020600020905b81548152906001019060200180831161027b57829003601f168201915b5050505050905090565b600080546102af9061082d565b80601f01602080910402602001604051908101604052809291908181526020018280546102db9061082d565b80156103285780601f106102fd57610100808354040283529160200191610328565b820191906000526020600020905b81548152906001019060200180831161030b57829003601f168201915b505050505081565b600160009054906101000a900473ffffffffffffffffffffffffffffffffffffffff1673ffffffffffffffffffffffffffffffffffffffff163373ffffffffffffffffffffffffffffffffffffffff16146103c0576040517f08c379a00000000000000000000000000000000000000000000000000000000081526004016103b7906107de565b60405180910390fd5b600073ffffffffffffffffffffffffffffffffffffffff168173ffffffffffffffffffffffffffffffffffffffff160361042f576040517f08c379a000000000000000000000000000000000000000000000000000000000815260040161042690610b85565b60405180910390fd5b80600160006101000a81548173ffffffffffffffffffffffffffffffffffffffff021916908373ffffffffffffffffffffffffffffffffffffffff16021790555050565b6000604051905090565b600080fd5b600080fd5b600080fd5b600080fd5b6000601f19601f8301169050919050565b7f4e487b7100000000000000000000000000000000000000000000000000000000600052604160045260246000fd5b6104da82610491565b810181811067ffffffffffffffff821117156104f9576104f86104a2565b5b80604052505050565b600061050c610473565b905061051882826104d1565b919050565b600067ffffffffffffffff821115610538576105376104a2565b5b61054182610491565b9050602081019050919050565b82818337600083830152505050565b600061057061056b8461051d565b610502565b90508281526020810184848401111561058c5761058b61048c565b5b61059784828561054e565b509392505050565b600082601f8301126105b4576105b3610487565b5b81356105c484826020860161055d565b91505092915050565b6000602082840312156105e3576105e261047d565b5b600082013567ffffffffffffffff81111561060157610600610482565b5b61060d8482850161059f565b91505092915050565b600073ffffffffffffffffffffffffffffffffffffffff82169050919050565b600061064182610616565b9050919050565b61065181610636565b82525050565b600060208201905061066c6000830184610648565b92915050565b600081519050919050565b600082825260208201905092915050565b60005b838110156106ac578082015181840152602081019050610691565b60008484015250505050565b60006106c382610672565b6106cd818561067d565b93506106dd81856020860161068e565b6106e681610491565b840191505092915050565b6000602082019050818103600083015261070b81846106b8565b905092915050565b61071c81610636565b811461072757600080fd5b50565b60008135905061073981610713565b92915050565b6000602082840312156107555761075461047d565b5b60006107638482850161072a565b91505092915050565b7f4f6e6c79206f776e65722063616e2063616c6c20746869732066756e6374696f60008201527f6e00000000000000000000000000000000000000000000000000000000000000602082015250565b60006107c860218361067d565b91506107d38261076c565b604082019050919050565b600060208201905081810360008301526107f7816107bb565b9050919050565b7f4e487b7100000000000000000000000000000000000000000000000000000000600052602260045260246000fd5b6000600282049050600182168061084557607f821691505b602082108103610858576108576107fe565b5b50919050565b60008190508160005260206000209050919050565b60006020601f8301049050919050565b600082821b905092915050565b6000600883026108c07fffffffffffffffffffffffffffffffffffffffffffffffffffffffffffffffff82610883565b6108ca8683610883565b95508019841693508086168417925050509392505050565b6000819050919050565b6000819050919050565b600061091161090c610907846108e2565b6108ec565b6108e2565b9050919050565b6000819050919050565b61092b836108f6565b61093f61093782610918565b848454610890565b825550505050565b600090565b610954610947565b61095f818484610922565b505050565b5b818110156109835761097860008261094c565b600181019050610965565b5050565b601f8211156109c8576109998161085e565b6109a284610873565b810160208510156109b1578190505b6109c56109bd85610873565b830182610964565b50505b505050565b600082821c905092915050565b60006109eb600019846008026109cd565b1980831691505092915050565b6000610a0483836109da565b9150826002028217905092915050565b610a1d82610672565b67ffffffffffffffff811115610a3657610a356104a2565b5b610a40825461082d565b610a4b828285610987565b600060209050601f831160018114610a7e5760008415610a6c578287015190505b610a7685826109f8565b865550610ade565b601f198416610a8c8661085e565b60005b82811015610ab457848901518255600182019150602085019450602081019050610a8f565b86831015610ad15784890151610acd601f8916826109da565b8355505b6001600288020188555050505b505050505050565b600081905092915050565b6000610afc82610672565b610b068185610ae6565b9350610b1681856020860161068e565b80840191505092915050565b6000610b2e8284610af1565b915081905092915050565b7f4e6577206f776e65722063616e6e6f74206265207a65726f2061646472657373600082015250565b6000610b6f60208361067d565b9150610b7a82610b39565b602082019050919050565b60006020820190508181036000830152610b9e81610b62565b905091905056fea26469706673582212201f9a1d502d20f6184e93545b9050bac7c5adb75ad11b0960af2f1abdea1786c764736f6c634300081c0033",
          "opcodes": "PUSH1 0x80 PUSH1 0x40 MSTORE CALLVALUE DUP1 ISZERO PUSH2 0x10 JUMPI PUSH1 0x0 DUP1 REVERT JUMPDEST POP PUSH1 0x40 MLOAD PUSH2 0x1137 CODESIZE SUB DUP1 PUSH2 0x1137 DUP4 CODECOPY DUP2 DUP2 ADD PUSH1 0x40 MSTORE DUP2 ADD SWAP1 PUSH2 0x32 SWAP2 SWAP1 PUSH2 0x211 JUMP JUMPDEST PUSH1 0x0 DUP2 MLOAD SUB PUSH2 0x85 JUMPI PUSH1 0x40 MLOAD DUP1 PUSH1 0x40 ADD PUSH1 0x40 MSTORE DUP1 PUSH1 0xC DUP2 MSTORE PUSH1 0x20 ADD PUSH32 0x4865792074686572652041440000000000000000000000000000000000000000 DUP2 MSTORE POP PUSH1 0x0 SWAP1 DUP2 PUSH2 0x7F SWAP2 SWAP1 PUSH2 0x47B JUMP JUMPDEST POP PUSH2 0x96 JUMP JUMPDEST DUP1 PUSH1 0x0 SWAP1 DUP2 PUSH2 0x94 SWAP2 SWAP1 PUSH2 0x47B JUMP JUMPDEST POP JUMPDEST POP PUSH2 0x54D JUMP JUMPDEST PUSH1 0x0 PUSH1 0x40 MLOAD SWAP1 POP SWAP1 JUMP JUMPDEST PUSH1 0x0 DUP1 REVERT JUMPDEST PUSH1 0x0 DUP1 REVERT JUMPDEST PUSH1 0x0 DUP1 REVERT JUMPDEST PUSH1 0x0 DUP1 REVERT JUMPDEST PUSH1 0x0 PUSH1 0x1F NOT PUSH1 0x1F DUP4 ADD AND SWAP1 POP SWAP2 SWAP1 POP JUMP JUMPDEST PUSH32 0x4E487B7100000000000000000000000000000000000000000000000000000000 PUSH1 0x0 MSTORE PUSH1 0x41 PUSH1 0x4 MSTORE PUSH1 0x24 PUSH1 0x0 REVERT JUMPDEST PUSH2 0x103 DUP3 PUSH2 0xBA JUMP JUMPDEST DUP2 ADD DUP2 DUP2 LT PUSH8 0xFFFFFFFFFFFFFFFF DUP3 GT OR ISZERO PUSH2 0x122 JUMPI PUSH2 0x121 PUSH2 0xCB JUMP JUMPDEST JUMPDEST DUP1 PUSH1 0x40 MSTORE POP POP POP JUMP JUMPDEST PUSH1 0x0 PUSH2 0x135 PUSH2 0x9C JUMP JUMPDEST SWAP1 POP PUSH2 0x141 DUP3 DUP3 PUSH2 0xFA JUMP JUMPDEST SWAP2 SWAP1 POP JUMP JUMPDEST PUSH1 0x0 PUSH8 0xFFFFFFFFFFFFFFFF DUP3 GT ISZERO PUSH2 0x161 JUMPI PUSH2 0x160 PUSH2 0xCB JUMP JUMPDEST JUMPDEST PUSH2 0x16A DUP3 PUSH2 0xBA JUMP JUMPDEST SWAP1 POP PUSH1 0x20 DUP2 ADD SWAP1 POP SWAP2 SWAP1 POP JUMP JUMPDEST PUSH1 0x0 JUMPDEST DUP4 DUP2 LT ISZERO PUSH2 0x195 JUMPI DUP1 DUP3 ADD MLOAD DUP2 DUP5 ADD MSTORE PUSH1 0x20 DUP2 ADD SWAP1 POP PUSH2 0x17A JUMP JUMPDEST PUSH1 0x0 DUP5 DUP5 ADD MSTORE POP POP POP POP JUMP JUMPDEST PUSH1 0x0 PUSH2 0x1B4 PUSH2 0x1AF DUP5 PUSH2 0x146 JUMP JUMPDEST PUSH2 0x12B JUMP JUMPDEST SWAP1 POP DUP3 DUP2 MSTORE PUSH1 0x20 DUP2 ADD DUP5 DUP5 DUP5 ADD GT ISZERO PUSH2 0x1D0 JUMPI PUSH2 0x1CF PUSH2 0xB5 JUMP JUMPDEST JUMPDEST PUSH2 0x1DB DUP5 DUP3 DUP6 PUSH2 0x177 JUMP JUMPDEST POP SWAP4 SWAP3 POP POP POP JUMP JUMPDEST PUSH1 0x0 DUP3 PUSH1 0x1F DUP4 ADD SLT PUSH2 0x1F8 JUMPI PUSH2 0x1F7 PUSH2 0xB0 JUMP JUMPDEST JUMPDEST DUP2 MLOAD PUSH2 0x208 DUP5 DUP3 PUSH1 0x20 DUP7 ADD PUSH2 0x1A1 JUMP JUMPDEST SWAP2 POP POP SWAP3 SWAP2 POP POP JUMP JUMPDEST PUSH1 0x0 PUSH1 0x20 DUP3 DUP5 SUB SLT ISZERO PUSH2 0x227 JUMPI PUSH2 0x226 PUSH2 0xA6 JUMP JUMPDEST JUMPDEST PUSH1 0x0 DUP3 ADD MLOAD PUSH8 0xFFFFFFFFFFFFFFFF DUP2 GT ISZERO PUSH2 0x245 JUMPI PUSH2 0x244 PUSH2 0xAB JUMP JUMPDEST JUMPDEST PUSH2 0x251 DUP5 DUP3 DUP6 ADD PUSH2 0x1E3 JUMP JUMPDEST SWAP2 POP POP SWAP3 SWAP2 POP POP JUMP JUMPDEST PUSH1 0x0 DUP2 MLOAD SWAP1 POP SWAP2 SWAP1 POP JUMP JUMPDEST PUSH32 0x4E487B7100000000000000000000000000000000000000000000000000000000 PUSH1 0x0 MSTORE PUSH1 0x22 PUSH1 0x4 MSTORE PUSH1 0x24 PUSH1 0x0 REVERT JUMPDEST PUSH1 0x0 PUSH1 0x2 DUP3 DIV SWAP1 POP PUSH1 0x1 DUP3 AND DUP1 PUSH2 0x2AC JUMPI PUSH1 0x7F DUP3 AND SWAP2 POP JUMPDEST PUSH1 0x20 DUP3 LT DUP2 SUB PUSH2 0x2BF JUMPI PUSH2 0x2BE PUSH2 0x265 JUMP JUMPDEST JUMPDEST POP SWAP2 SWAP1 POP JUMP JUMPDEST PUSH1 0x0 DUP2 SWAP1 POP DUP2 PUSH1 0x0 MSTORE PUSH1 0x20 PUSH1 0x0 KECCAK256 SWAP1 POP SWAP2 SWAP1 POP JUMP JUMPDEST PUSH1 0x0 PUSH1 0x20 PUSH1 0x1F DUP4 ADD DIV SWAP1 POP SWAP2 SWAP1 POP JUMP JUMPDEST PUSH1 0x0 DUP3 DUP3 SHL SWAP1 POP SWAP3 SWAP2 POP POP JUMP JUMPDEST PUSH1 0x0 PUSH1 0x8 DUP4 MUL PUSH2 0x327 PUSH32 0xFFFFFFFFFFFFFFFFFFFFFFFFFFFFFFFFFFFFFFFFFFFFFFFFFFFFFFFFFFFFFFFF DUP3 PUSH2 0x2EA JUMP JUMPDEST PUSH2 0x331 DUP7 DUP4 PUSH2 0x2EA JUMP JUMPDEST SWAP6 POP DUP1 NOT DUP5 AND SWAP4 POP DUP1 DUP7 AND DUP5 OR SWAP3 POP POP POP SWAP4 SWAP3 POP POP POP JUMP JUMPDEST PUSH1 0x0 DUP2 SWAP1 POP SWAP2 SWAP1 POP JUMP JUMPDEST PUSH1 0x0 DUP2 SWAP1 POP SWAP2 SWAP1 POP JUMP JUMPDEST PUSH1 0x0 PUSH2 0x378 PUSH2 0x373 PUSH2 0x36E DUP5 PUSH2 0x349 JUMP JUMPDEST PUSH2 0x353 JUMP JUMPDEST PUSH2 0x349 JUMP JUMPDEST SWAP1 POP SWAP2 SWAP1 POP JUMP JUMPDEST PUSH1 0x0 DUP2 SWAP1 POP SWAP2 SWAP1 POP JUMP JUMPDEST PUSH2 0x392 DUP4 PUSH2 0x35D JUMP JUMPDEST PUSH2 0x3A6 PUSH2 0x39E DUP3 PUSH2 0x37F JUMP JUMPDEST DUP5 DUP5 SLOAD PUSH2 0x2F7 JUMP JUMPDEST DUP3 SSTORE POP POP POP POP JUMP JUMPDEST PUSH1 0x0 SWAP1 JUMP JUMPDEST PUSH2 0x3BB PUSH2 0x3AE JUMP JUMPDEST PUSH2 0x3C6 DUP2 DUP5 DUP5 PUSH2 0x389 JUMP JUMPDEST POP POP POP JUMP JUMPDEST JUMPDEST DUP2 DUP2 LT ISZERO PUSH2 0x3EA JUMPI PUSH2 0x3DF PUSH1 0x0 DUP3 PUSH2 0x3B3 JUMP JUMPDEST PUSH1 0x1 DUP2 ADD SWAP1 POP PUSH2 0x3CC JUMP JUMPDEST POP POP JUMP JUMPDEST PUSH1 0x1F DUP3 GT ISZERO PUSH2 0x42F JUMPI PUSH2 0x400 DUP2 PUSH2 0x2C5 JUMP JUMPDEST PUSH2 0x409 DUP5 PUSH2 0x2DA JUMP JUMPDEST DUP2 ADD PUSH1 0x20 DUP6 LT ISZERO PUSH2 0x418 JUMPI DUP2 SWAP1 POP JUMPDEST PUSH2 0x42C PUSH2 0x424 DUP6 PUSH2 0x2DA JUMP JUMPDEST DUP4 ADD DUP3 PUSH2 0x3CB JUMP JUMPDEST POP POP JUMPDEST POP POP POP JUMP JUMPDEST PUSH1 0x0 DUP3 DUP3 SHR SWAP1 POP SWAP3 SWAP2 POP POP JUMP JUMPDEST PUSH1 0x0 PUSH2 0x452 PUSH1 0x0 NOT DUP5 PUSH1 0x8 MUL PUSH2 0x434 JUMP JUMPDEST NOT DUP1 DUP4 AND SWAP2 POP POP SWAP3 SWAP2 POP POP JUMP JUMPDEST PUSH1 0x0 PUSH2 0x46B DUP4 DUP4 PUSH2 0x441 JUMP JUMPDEST SWAP2 POP DUP3 PUSH1 0x2 MUL DUP3 OR SWAP1 POP SWAP3 SWAP2 POP POP JUMP JUMPDEST PUSH2 0x484 DUP3 PUSH2 0x25A JUMP JUMPDEST PUSH8 0xFFFFFFFFFFFFFFFF DUP2 GT ISZERO PUSH2 0x49D JUMPI PUSH2 0x49C PUSH2 0xCB JUMP JUMPDEST JUMPDEST PUSH2 0x4A7 DUP3 SLOAD PUSH2 0x294 JUMP JUMPDEST PUSH2 0x4B2 DUP3 DUP3 DUP6 PUSH2 0x3EE JUMP JUMPDEST PUSH1 0x0 PUSH1 0x20 SWAP1 POP PUSH1 0x1F DUP4 GT PUSH1 0x1 DUP2 EQ PUSH2 0x4E5 JUMPI PUSH1 0x0 DUP5 ISZERO PUSH2 0x4D3 JUMPI DUP3 DUP8 ADD MLOAD SWAP1 POP JUMPDEST PUSH2 0x4DD DUP6 DUP3 PUSH2 0x45F JUMP JUMPDEST DUP7 SSTORE POP PUSH2 0x545 JUMP JUMPDEST PUSH1 0x1F NOT DUP5 AND PUSH2 0x4F3 DUP7 PUSH2 0x2C5 JUMP JUMPDEST PUSH1 0x0 JUMPDEST DUP3 DUP2 LT ISZERO PUSH2 0x51B JUMPI DUP5 DUP10 ADD MLOAD DUP3 SSTORE PUSH1 0x1 DUP3 ADD SWAP2 POP PUSH1 0x20 DUP6 ADD SWAP5 POP PUSH1 0x20 DUP2 ADD SWAP1 POP PUSH2 0x4F6 JUMP JUMPDEST DUP7 DUP4 LT ISZERO PUSH2 0x538 JUMPI DUP5 DUP10 ADD MLOAD PUSH2 0x534 PUSH1 0x1F DUP10 AND DUP3 PUSH2 0x441 JUMP JUMPDEST DUP4 SSTORE POP JUMPDEST PUSH1 0x1 PUSH1 0x2 DUP9 MUL ADD DUP9 SSTORE POP POP POP JUMPDEST POP POP POP POP POP POP JUMP JUMPDEST PUSH2 0xBDB DUP1 PUSH2 0x55C PUSH1 0x0 CODECOPY PUSH1 0x0 RETURN INVALID PUSH1 0x80 PUSH1 0x40 MSTORE CALLVALUE DUP1 ISZERO PUSH2 0x10 JUMPI PUSH1 0x0 DUP1 REVERT JUMPDEST POP PUSH1 0x4 CALLDATASIZE LT PUSH2 0x57 JUMPI PUSH1 0x0 CALLDATALOAD PUSH1 0xE0 SHR DUP1 PUSH4 0x368B8772 EQ PUSH2 0x5C JUMPI DUP1 PUSH4 0x8DA5CB5B EQ PUSH2 0x78 JUMPI DUP1 PUSH4 0xCE6D41DE EQ PUSH2 0x96 JUMPI DUP1 PUSH4 0xE21F37CE EQ PUSH2 0xB4 JUMPI DUP1 PUSH4 0xF2FDE38B EQ PUSH2 0xD2 JUMPI JUMPDEST PUSH1 0x0 DUP1 REVERT JUMPDEST PUSH2 0x76 PUSH1 0x4 DUP1 CALLDATASIZE SUB DUP2 ADD SWAP1 PUSH2 0x71 SWAP2 SWAP1 PUSH2 0x5CD JUMP JUMPDEST PUSH2 0xEE JUMP JUMPDEST STOP JUMPDEST PUSH2 0x80 PUSH2 0x1EA JUMP JUMPDEST PUSH1 0x40 MLOAD PUSH2 0x8D SWAP2 SWAP1 PUSH2 0x657 JUMP JUMPDEST PUSH1 0x40 MLOAD DUP1 SWAP2 SUB SWAP1 RETURN JUMPDEST PUSH2 0x9E PUSH2 0x210 JUMP JUMPDEST PUSH1 0x40 MLOAD PUSH2 0xAB SWAP2 SWAP1 PUSH2 0x6F1 JUMP JUMPDEST PUSH1 0x40 MLOAD DUP1 SWAP2 SUB SWAP1 RETURN JUMPDEST PUSH2 0xBC PUSH2 0x2A2 JUMP JUMPDEST PUSH1 0x40 MLOAD PUSH2 0xC9 SWAP2 SWAP1 PUSH2 0x6F1 JUMP JUMPDEST PUSH1 0x40 MLOAD DUP1 SWAP2 SUB SWAP1 RETURN JUMPDEST PUSH2 0xEC PUSH1 0x4 DUP1 CALLDATASIZE SUB DUP2 ADD SWAP1 PUSH2 0xE7 SWAP2 SWAP1 PUSH2 0x73F JUMP JUMPDEST PUSH2 0x330 JUMP JUMPDEST STOP JUMPDEST PUSH1 0x1 PUSH1 0x0 SWAP1 SLOAD SWAP1 PUSH2 0x100 EXP SWAP1 DIV PUSH20 0xFFFFFFFFFFFFFFFFFFFFFFFFFFFFFFFFFFFFFFFF AND PUSH20 0xFFFFFFFFFFFFFFFFFFFFFFFFFFFFFFFFFFFFFFFF AND CALLER PUSH20 0xFFFFFFFFFFFFFFFFFFFFFFFFFFFFFFFFFFFFFFFF AND EQ PUSH2 0x17E JUMPI PUSH1 0x40 MLOAD PUSH32 0x8C379A000000000000000000000000000000000000000000000000000000000 DUP2 MSTORE PUSH1 0x4 ADD PUSH2 0x175 SWAP1 PUSH2 0x7DE JUMP JUMPDEST PUSH1 0x40 MLOAD DUP1 SWAP2 SUB SWAP1 REVERT JUMPDEST DUP1 PUSH1 0x0 SWAP1 DUP2 PUSH2 0x18D SWAP2 SWAP1 PUSH2 0xA14 JUMP JUMPDEST POP CALLER PUSH20 0xFFFFFFFFFFFFFFFFFFFFFFFFFFFFFFFFFFFFFFFF AND DUP2 PUSH1 0x40 MLOAD PUSH2 0x1B3 SWAP2 SWAP1 PUSH2 0xB22 JUMP JUMPDEST PUSH1 0x40 MLOAD DUP1 SWAP2 SUB SWAP1 KECCAK256 PUSH32 0xFE805C34BE9E63A416B9ABA99C6C62782DAFB9620895945675BBBE5131AEB1A1 PUSH1 0x40 MLOAD PUSH1 0x40 MLOAD DUP1 SWAP2 SUB SWAP1 LOG3 POP JUMP JUMPDEST PUSH1 0x1 PUSH1 0x0 SWAP1 SLOAD SWAP1 PUSH2 0x100 EXP SWAP1 DIV PUSH20 0xFFFFFFFFFFFFFFFFFFFFFFFFFFFFFFFFFFFFFFFF AND DUP2 JUMP JUMPDEST PUSH1 0x60 PUSH1 0x0 DUP1 SLOAD PUSH2 0x21F SWAP1 PUSH2 0x82D JUMP JUMPDEST DUP1 PUSH1 0x1F ADD PUSH1 0x20 DUP1 SWAP2 DIV MUL PUSH1 0x20 ADD PUSH1 0x40 MLOAD SWAP1 DUP2 ADD PUSH1 0x40 MSTORE DUP1 SWAP3 SWAP2 SWAP1 DUP2 DUP2 MSTORE PUSH1 0x20 ADD DUP3 DUP1 SLOAD PUSH2 0x24B SWAP1 PUSH2 0x82D JUMP JUMPDEST DUP1 ISZERO PUSH2 0x298 JUMPI DUP1 PUSH1 0x1F LT PUSH2 0x26D JUMPI PUSH2 0x100 DUP1 DUP4 SLOAD DIV MUL DUP4 MSTORE SWAP2 PUSH1 0x20 ADD SWAP2 PUSH2 0x298 JUMP JUMPDEST DUP3 ADD SWAP2 SWAP1 PUSH1 0x0 MSTORE PUSH1 0x20 PUSH1 0x0 KECCAK256 SWAP1 JUMPDEST DUP2 SLOAD DUP2 MSTORE SWAP1 PUSH1 0x1 ADD SWAP1 PUSH1 0x20 ADD DUP1 DUP4 GT PUSH2 0x27B JUMPI DUP3 SWAP1 SUB PUSH1 0x1F AND DUP3 ADD SWAP2 JUMPDEST POP POP POP POP POP SWAP1 POP SWAP1 JUMP JUMPDEST PUSH1 0x0 DUP1 SLOAD PUSH2 0x2AF SWAP1 PUSH2 0x82D JUMP JUMPDEST DUP1 PUSH1 0x1F ADD PUSH1 0x20 DUP1 SWAP2 DIV MUL PUSH1 0x20 ADD PUSH1 0x40 MLOAD SWAP1 DUP2 ADD PUSH1 0x40 MSTORE DUP1 SWAP3 SWAP2 SWAP1 DUP2 DUP2 MSTORE PUSH1 0x20 ADD DUP3 DUP1 SLOAD PUSH2 0x2DB SWAP1 PUSH2 0x82D JUMP JUMPDEST DUP1 ISZERO PUSH2 0x328 JUMPI DUP1 PUSH1 0x1F LT PUSH2 0x2FD JUMPI PUSH2 0x100 DUP1 DUP4 SLOAD DIV MUL DUP4 MSTORE SWAP2 PUSH1 0x20 ADD SWAP2 PUSH2 0x328 JUMP JUMPDEST DUP3 ADD SWAP2 SWAP1 PUSH1 0x0 MSTORE PUSH1 0x20 PUSH1 0x0 KECCAK256 SWAP1 JUMPDEST DUP2 SLOAD DUP2 MSTORE SWAP1 PUSH1 0x1 ADD SWAP1 PUSH1 0x20 ADD DUP1 DUP4 GT PUSH2 0x30B JUMPI DUP3 SWAP1 SUB PUSH1 0x1F AND DUP3 ADD SWAP2 JUMPDEST POP POP POP POP POP DUP2 JUMP JUMPDEST PUSH1 0x1 PUSH1 0x0 SWAP1 SLOAD SWAP1 PUSH2 0x100 EXP SWAP1 DIV PUSH20 0xFFFFFFFFFFFFFFFFFFFFFFFFFFFFFFFFFFFFFFFF AND PUSH20 0xFFFFFFFFFFFFFFFFFFFFFFFFFFFFFFFFFFFFFFFF AND CALLER PUSH20 0xFFFFFFFFFFFFFFFFFFFFFFFFFFFFFFFFFFFFFFFF AND EQ PUSH2 0x3C0 JUMPI PUSH1 0x40 MLOAD PUSH32 0x8C379A000000000000000000000000000000000000000000000000000000000 DUP2 MSTORE PUSH1 0x4 ADD PUSH2 0x3B7 SWAP1 PUSH2 0x7DE JUMP JUMPDEST PUSH1 0x40 MLOAD DUP1 SWAP2 SUB SWAP1 REVERT JUMPDEST PUSH1 0x0 PUSH20 0xFFFFFFFFFFFFFFFFFFFFFFFFFFFFFFFFFFFFFFFF AND DUP2 PUSH20 0xFFFFFFFFFFFFFFFFFFFFFFFFFFFFFFFFFFFFFFFF AND SUB PUSH2 0x42F JUMPI PUSH1 0x40 MLOAD PUSH32 0x8C379A000000000000000000000000000000000000000000000000000000000 DUP2 MSTORE PUSH1 0x4 ADD PUSH2 0x426 SWAP1 PUSH2 0xB85 JUMP JUMPDEST PUSH1 0x40 MLOAD DUP1 SWAP2 SUB SWAP1 REVERT JUMPDEST DUP1 PUSH1 0x1 PUSH1 0x0 PUSH2 0x100 EXP DUP2 SLOAD DUP2 PUSH20 0xFFFFFFFFFFFFFFFFFFFFFFFFFFFFFFFFFFFFFFFF MUL NOT AND SWAP1 DUP4 PUSH20 0xFFFFFFFFFFFFFFFFFFFFFFFFFFFFFFFFFFFFFFFF AND MUL OR SWAP1 SSTORE POP POP JUMP JUMPDEST PUSH1 0x0 PUSH1 0x40 MLOAD SWAP1 POP SWAP1 JUMP JUMPDEST PUSH1 0x0 DUP1 REVERT JUMPDEST PUSH1 0x0 DUP1 REVERT JUMPDEST PUSH1 0x0 DUP1 REVERT JUMPDEST PUSH1 0x0 DUP1 REVERT JUMPDEST PUSH1 0x0 PUSH1 0x1F NOT PUSH1 0x1F DUP4 ADD AND SWAP1 POP SWAP2 SWAP1 POP JUMP JUMPDEST PUSH32 0x4E487B7100000000000000000000000000000000000000000000000000000000 PUSH1 0x0 MSTORE PUSH1 0x41 PUSH1 0x4 MSTORE PUSH1 0x24 PUSH1 0x0 REVERT JUMPDEST PUSH2 0x4DA DUP3 PUSH2 0x491 JUMP JUMPDEST DUP2 ADD DUP2 DUP2 LT PUSH8 0xFFFFFFFFFFFFFFFF DUP3 GT OR ISZERO PUSH2 0x4F9 JUMPI PUSH2 0x4F8 PUSH2 0x4A2 JUMP JUMPDEST JUMPDEST DUP1 PUSH1 0x40 MSTORE POP POP POP JUMP JUMPDEST PUSH1 0x0 PUSH2 0x50C PUSH2 0x473 JUMP JUMPDEST SWAP1 POP PUSH2 0x518 DUP3 DUP3 PUSH2 0x4D1 JUMP JUMPDEST SWAP2 SWAP1 POP JUMP JUMPDEST PUSH1 0x0 PUSH8 0xFFFFFFFFFFFFFFFF DUP3 GT ISZERO PUSH2 0x538 JUMPI PUSH2 0x537 PUSH2 0x4A2 JUMP JUMPDEST JUMPDEST PUSH2 0x541 DUP3 PUSH2 0x491 JUMP JUMPDEST SWAP1 POP PUSH1 0x20 DUP2 ADD SWAP1 POP SWAP2 SWAP1 POP JUMP JUMPDEST DUP3 DUP2 DUP4 CALLDATACOPY PUSH1 0x0 DUP4 DUP4 ADD MSTORE POP POP POP JUMP JUMPDEST PUSH1 0x0 PUSH2 0x570 PUSH2 0x56B DUP5 PUSH2 0x51D JUMP JUMPDEST PUSH2 0x502 JUMP JUMPDEST SWAP1 POP DUP3 DUP2 MSTORE PUSH1 0x20 DUP2 ADD DUP5 DUP5 DUP5 ADD GT ISZERO PUSH2 0x58C JUMPI PUSH2 0x58B PUSH2 0x48C JUMP JUMPDEST JUMPDEST PUSH2 0x597 DUP5 DUP3 DUP6 PUSH2 0x54E JUMP JUMPDEST POP SWAP4 SWAP3 POP POP POP JUMP JUMPDEST PUSH1 0x0 DUP3 PUSH1 0x1F DUP4 ADD SLT PUSH2 0x5B4 JUMPI PUSH2 0x5B3 PUSH2 0x487 JUMP JUMPDEST JUMPDEST DUP2 CALLDATALOAD PUSH2 0x5C4 DUP5 DUP3 PUSH1 0x20 DUP7 ADD PUSH2 0x55D JUMP JUMPDEST SWAP2 POP POP SWAP3 SWAP2 POP POP JUMP JUMPDEST PUSH1 0x0 PUSH1 0x20 DUP3 DUP5 SUB SLT ISZERO PUSH2 0x5E3 JUMPI PUSH2 0x5E2 PUSH2 0x47D JUMP JUMPDEST JUMPDEST PUSH1 0x0 DUP3 ADD CALLDATALOAD PUSH8 0xFFFFFFFFFFFFFFFF DUP2 GT ISZERO PUSH2 0x601 JUMPI PUSH2 0x600 PUSH2 0x482 JUMP JUMPDEST JUMPDEST PUSH2 0x60D DUP5 DUP3 DUP6 ADD PUSH2 0x59F JUMP JUMPDEST SWAP2 POP POP SWAP3 SWAP2 POP POP JUMP JUMPDEST PUSH1 0x0 PUSH20 0xFFFFFFFFFFFFFFFFFFFFFFFFFFFFFFFFFFFFFFFF DUP3 AND SWAP1 POP SWAP2 SWAP1 POP JUMP JUMPDEST PUSH1 0x0 PUSH2 0x641 DUP3 PUSH2 0x616 JUMP JUMPDEST SWAP1 POP SWAP2 SWAP1 POP JUMP JUMPDEST PUSH2 0x651 DUP2 PUSH2 0x636 JUMP JUMPDEST DUP3 MSTORE POP POP JUMP JUMPDEST PUSH1 0x0 PUSH1 0x20 DUP3 ADD SWAP1 POP PUSH2 0x66C PUSH1 0x0 DUP4 ADD DUP5 PUSH2 0x648 JUMP JUMPDEST SWAP3 SWAP2 POP POP JUMP JUMPDEST PUSH1 0x0 DUP2 MLOAD SWAP1 POP SWAP2 SWAP1 POP JUMP JUMPDEST PUSH1 0x0 DUP3 DUP3 MSTORE PUSH1 0x20 DUP3 ADD SWAP1 POP SWAP3 SWAP2 POP POP JUMP JUMPDEST PUSH1 0x0 JUMPDEST DUP4 DUP2 LT ISZERO PUSH2 0x6AC JUMPI DUP1 DUP3 ADD MLOAD DUP2 DUP5 ADD MSTORE PUSH1 0x20 DUP2 ADD SWAP1 POP PUSH2 0x691 JUMP JUMPDEST PUSH1 0x0 DUP5 DUP5 ADD MSTORE POP POP POP POP JUMP JUMPDEST PUSH1 0x0 PUSH2 0x6C3 DUP3 PUSH2 0x672 JUMP JUMPDEST PUSH2 0x6CD DUP2 DUP6 PUSH2 0x67D JUMP JUMPDEST SWAP4 POP PUSH2 0x6DD DUP2 DUP6 PUSH1 0x20 DUP7 ADD PUSH2 0x68E JUMP JUMPDEST PUSH2 0x6E6 DUP2 PUSH2 0x491 JUMP JUMPDEST DUP5 ADD SWAP2 POP POP SWAP3 SWAP2 POP POP JUMP JUMPDEST PUSH1 0x0 PUSH1 0x20 DUP3 ADD SWAP1 POP DUP2 DUP2 SUB PUSH1 0x0 DUP4 ADD MSTORE PUSH2 0x70B DUP2 DUP5 PUSH2 0x6B8 JUMP JUMPDEST SWAP1 POP SWAP3 SWAP2 POP POP JUMP JUMPDEST PUSH2 0x71C DUP2 PUSH2 0x636 JUMP JUMPDEST DUP2 EQ PUSH2 0x727 JUMPI PUSH1 0x0 DUP1 REVERT JUMPDEST POP JUMP JUMPDEST PUSH1 0x0 DUP2 CALLDATALOAD SWAP1 POP PUSH2 0x739 DUP2 PUSH2 0x713 JUMP JUMPDEST SWAP3 SWAP2 POP POP JUMP JUMPDEST PUSH1 0x0 PUSH1 0x20 DUP3 DUP5 SUB SLT ISZERO PUSH2 0x755 JUMPI PUSH2 0x754 PUSH2 0x47D JUMP JUMPDEST JUMPDEST PUSH1 0x0 PUSH2 0x763 DUP5 DUP3 DUP6 ADD PUSH2 0x72A JUMP JUMPDEST SWAP2 POP POP SWAP3 SWAP2 POP POP JUMP JUMPDEST PUSH32 0x4F6E6C79206F776E65722063616E2063616C6C20746869732066756E6374696F PUSH1 0x0 DUP3 ADD MSTORE PUSH32 0x6E00000000000000000000000000000000000000000000000000000000000000 PUSH1 0x20 DUP3 ADD MSTORE POP JUMP JUMPDEST PUSH1 0x0 PUSH2 0x7C8 PUSH1 0x21 DUP4 PUSH2 0x67D JUMP JUMPDEST SWAP2 POP PUSH2 0x7D3 DUP3 PUSH2 0x76C JUMP JUMPDEST PUSH1 0x40 DUP3 ADD SWAP1 POP SWAP2 SWAP1 POP JUMP JUMPDEST PUSH1 0x0 PUSH1 0x20 DUP3 ADD SWAP1 POP DUP2 DUP2 SUB PUSH1 0x0 DUP4 ADD MSTORE PUSH2 0x7F7 DUP2 PUSH2 0x7BB JUMP JUMPDEST SWAP1 POP SWAP2 SWAP1 POP JUMP JUMPDEST PUSH32 0x4E487B7100000000000000000000000000000000000000000000000000000000 PUSH1 0x0 MSTORE PUSH1 0x22 PUSH1 0x4 MSTORE PUSH1 0x24 PUSH1 0x0 REVERT JUMPDEST PUSH1 0x0 PUSH1 0x2 DUP3 DIV SWAP1 POP PUSH1 0x1 DUP3 AND DUP1 PUSH2 0x845 JUMPI PUSH1 0x7F DUP3 AND SWAP2 POP JUMPDEST PUSH1 0x20 DUP3 LT DUP2 SUB PUSH2 0x858 JUMPI PUSH2 0x857 PUSH2 0x7FE JUMP JUMPDEST JUMPDEST POP SWAP2 SWAP1 POP JUMP JUMPDEST PUSH1 0x0 DUP2 SWAP1 POP DUP2 PUSH1 0x0 MSTORE PUSH1 0x20 PUSH1 0x0 KECCAK256 SWAP1 POP SWAP2 SWAP1 POP JUMP JUMPDEST PUSH1 0x0 PUSH1 0x20 PUSH1 0x1F DUP4 ADD DIV SWAP1 POP SWAP2 SWAP1 POP JUMP JUMPDEST PUSH1 0x0 DUP3 DUP3 SHL SWAP1 POP SWAP3 SWAP2 POP POP JUMP JUMPDEST PUSH1 0x0 PUSH1 0x8 DUP4 MUL PUSH2 0x8C0 PUSH32 0xFFFFFFFFFFFFFFFFFFFFFFFFFFFFFFFFFFFFFFFFFFFFFFFFFFFFFFFFFFFFFFFF DUP3 PUSH2 0x883 JUMP JUMPDEST PUSH2 0x8CA DUP7 DUP4 PUSH2 0x883 JUMP JUMPDEST SWAP6 POP DUP1 NOT DUP5 AND SWAP4 POP DUP1 DUP7 AND DUP5 OR SWAP3 POP POP POP SWAP4 SWAP3 POP POP POP JUMP JUMPDEST PUSH1 0x0 DUP2 SWAP1 POP SWAP2 SWAP1 POP JUMP JUMPDEST PUSH1 0x0 DUP2 SWAP1 POP SWAP2 SWAP1 POP JUMP JUMPDEST PUSH1 0x0 PUSH2 0x911 PUSH2 0x90C PUSH2 0x907 DUP5 PUSH2 0x8E2 JUMP JUMPDEST PUSH2 0x8EC JUMP JUMPDEST PUSH2 0x8E2 JUMP JUMPDEST SWAP1 POP SWAP2 SWAP1 POP JUMP JUMPDEST PUSH1 0x0 DUP2 SWAP1 POP SWAP2 SWAP1 POP JUMP JUMPDEST PUSH2 0x92B DUP4 PUSH2 0x8F6 JUMP JUMPDEST PUSH2 0x93F PUSH2 0x937 DUP3 PUSH2 0x918 JUMP JUMPDEST DUP5 DUP5 SLOAD PUSH2 0x890 JUMP JUMPDEST DUP3 SSTORE POP POP POP POP JUMP JUMPDEST PUSH1 0x0 SWAP1 JUMP JUMPDEST PUSH2 0x954 PUSH2 0x947 JUMP JUMPDEST PUSH2 0x95F DUP2 DUP5 DUP5 PUSH2 0x922 JUMP JUMPDEST POP POP POP JUMP JUMPDEST JUMPDEST DUP2 DUP2 LT ISZERO PUSH2 0x983 JUMPI PUSH2 0x978 PUSH1 0x0 DUP3 PUSH2 0x94C JUMP JUMPDEST PUSH1 0x1 DUP2 ADD SWAP1 POP PUSH2 0x965 JUMP JUMPDEST POP POP JUMP JUMPDEST PUSH1 0x1F DUP3 GT ISZERO PUSH2 0x9C8 JUMPI PUSH2 0x999 DUP2 PUSH2 0x85E JUMP JUMPDEST PUSH2 0x9A2 DUP5 PUSH2 0x873 JUMP JUMPDEST DUP2 ADD PUSH1 0x20 DUP6 LT ISZERO PUSH2 0x9B1 JUMPI DUP2 SWAP1 POP JUMPDEST PUSH2 0x9C5 PUSH2 0x9BD DUP6 PUSH2 0x873 JUMP JUMPDEST DUP4 ADD DUP3 PUSH2 0x964 JUMP JUMPDEST POP POP JUMPDEST POP POP POP JUMP JUMPDEST PUSH1 0x0 DUP3 DUP3 SHR SWAP1 POP SWAP3 SWAP2 POP POP JUMP JUMPDEST PUSH1 0x0 PUSH2 0x9EB PUSH1 0x0 NOT DUP5 PUSH1 0x8 MUL PUSH2 0x9CD JUMP JUMPDEST NOT DUP1 DUP4 AND SWAP2 POP POP SWAP3 SWAP2 POP POP JUMP JUMPDEST PUSH1 0x0 PUSH2 0xA04 DUP4 DUP4 PUSH2 0x9DA JUMP JUMPDEST SWAP2 POP DUP3 PUSH1 0x2 MUL DUP3 OR SWAP1 POP SWAP3 SWAP2 POP POP JUMP JUMPDEST PUSH2 0xA1D DUP3 PUSH2 0x672 JUMP JUMPDEST PUSH8 0xFFFFFFFFFFFFFFFF DUP2 GT ISZERO PUSH2 0xA36 JUMPI PUSH2 0xA35 PUSH2 0x4A2 JUMP JUMPDEST JUMPDEST PUSH2 0xA40 DUP3 SLOAD PUSH2 0x82D JUMP JUMPDEST PUSH2 0xA4B DUP3 DUP3 DUP6 PUSH2 0x987 JUMP JUMPDEST PUSH1 0x0 PUSH1 0x20 SWAP1 POP PUSH1 0x1F DUP4 GT PUSH1 0x1 DUP2 EQ PUSH2 0xA7E JUMPI PUSH1 0x0 DUP5 ISZERO PUSH2 0xA6C JUMPI DUP3 DUP8 ADD MLOAD SWAP1 POP JUMPDEST PUSH2 0xA76 DUP6 DUP3 PUSH2 0x9F8 JUMP JUMPDEST DUP7 SSTORE POP PUSH2 0xADE JUMP JUMPDEST PUSH1 0x1F NOT DUP5 AND PUSH2 0xA8C DUP7 PUSH2 0x85E JUMP JUMPDEST PUSH1 0x0 JUMPDEST DUP3 DUP2 LT ISZERO PUSH2 0xAB4 JUMPI DUP5 DUP10 ADD MLOAD DUP3 SSTORE PUSH1 0x1 DUP3 ADD SWAP2 POP PUSH1 0x20 DUP6 ADD SWAP5 POP PUSH1 0x20 DUP2 ADD SWAP1 POP PUSH2 0xA8F JUMP JUMPDEST DUP7 DUP4 LT ISZERO PUSH2 0xAD1 JUMPI DUP5 DUP10 ADD MLOAD PUSH2 0xACD PUSH1 0x1F DUP10 AND DUP3 PUSH2 0x9DA JUMP JUMPDEST DUP4 SSTORE POP JUMPDEST PUSH1 0x1 PUSH1 0x2 DUP9 MUL ADD DUP9 SSTORE POP POP POP JUMPDEST POP POP POP POP POP POP JUMP JUMPDEST PUSH1 0x0 DUP2 SWAP1 POP SWAP3 SWAP2 POP POP JUMP JUMPDEST PUSH1 0x0 PUSH2 0xAFC DUP3 PUSH2 0x672 JUMP JUMPDEST PUSH2 0xB06 DUP2 DUP6 PUSH2 0xAE6 JUMP JUMPDEST SWAP4 POP PUSH2 0xB16 DUP2 DUP6 PUSH1 0x20 DUP7 ADD PUSH2 0x68E JUMP JUMPDEST DUP1 DUP5 ADD SWAP2 POP POP SWAP3 SWAP2 POP POP JUMP JUMPDEST PUSH1 0x0 PUSH2 0xB2E DUP3 DUP5 PUSH2 0xAF1 JUMP JUMPDEST SWAP2 POP DUP2 SWAP1 POP SWAP3 SWAP2 POP POP JUMP JUMPDEST PUSH32 0x4E6577206F776E65722063616E6E6F74206265207A65726F2061646472657373 PUSH1 0x0 DUP3 ADD MSTORE POP JUMP JUMPDEST PUSH1 0x0 PUSH2 0xB6F PUSH1 0x20 DUP4 PUSH2 0x67D JUMP JUMPDEST SWAP2 POP PUSH2 0xB7A DUP3 PUSH2 0xB39 JUMP JUMPDEST PUSH1 0x20 DUP3 ADD SWAP1 POP SWAP2 SWAP1 POP JUMP JUMPDEST PUSH1 0x0 PUSH1 0x20 DUP3 ADD SWAP1 POP DUP2 DUP2 SUB PUSH1 0x0 DUP4 ADD MSTORE PUSH2 0xB9E DUP2 PUSH2 0xB62 JUMP JUMPDEST SWAP1 POP SWAP2 SWAP1 POP JUMP INVALID LOG2 PUSH5 0x6970667358 0x22 SLT KECCAK256 0x1F SWAP11 SAR POP 0x2D KECCAK256 0xF6 XOR 0x4E SWAP4 SLOAD JUMPDEST SWAP1 POP 0xBA 0xC7 0xC5 0xAD 0xB7 GAS 0xD1 SHL MULMOD PUSH1 0xAF 0x2F BYTE 0xBD 0xEA OR DUP7 0xC7 PUSH5 0x736F6C6343 STOP ADDMOD SHR STOP CALLER "
        },
        "methodIdentifiers": {
          "getMessage()": "ce6d41de",
          "message()": "e21f37ce",
          "owner()": "8da5cb5b",
          "setMessage(string)": "368b8772",
          "transferOwnership(address)": "f2fde38b"
        }
      }
    }
  }
}